S0240000554152542050726F746F636F6C205465737420666F7220536C6176652E7372656310
S11300004DC0000068C0000066C0000064C000006D
S113001062C0000060C000005EC000005CC0000060
S11300205AC0000058C0000056C0000054C0000070
S113003052C0000050C000004EC000004CC0000080
S11300404AC000006DC2000046C0000044C0000069
S113005042C0000040C000003EC000003CC00000A0
S11300603AC0000038C0000036C0000034C00000B0
S113007032C0000030C000002EC000002CC00000C0
S11300802AC0000028C0000026C000007C018001B6
S1130090840188018C0190019401980111241FBEF0
S11300A0CFEFD0E1DEBFCDBF11E0A0E0B1E0E2EAE6
S11300B0F5E000E00BBF02C007900D92A633B10734
S11300C0D9F721E0A6E3B1E001C01D92AC3AB20732
S11300D0E1F756D264C294CFE8E4F1E080E099E11C
S11300E0918380838CE99AE19383828385E29BE107
S11300F09583848388E39CE1978386838BE49DE1E5
S1130100918780878EE59EE19387828781E79FE1CF
S11301109587848787E991E2978786878AEA92E2BE
S1130120918B808B8DEB93E2938B828B83EE95E2A4
S1130130958B848B86EF96E2978B868B89E098E289
S1130140918F808F8FE29AE2938F828F8BEC9BE268
S1130150958F848F84E59CE2978F868F87E69DE256
S113016091A380A38AE79EE293A382A38DE89FE2F2
S113017095A384A380EA90E397A386A386EC92E3F5
S113018091A780A789ED93E393A782A78CEE94E3CC
S113019095A784A78FEF95E397A786A782E197E3B6
S11301A091AB80AB8EE89CE493AB82AB8AE29EE495
S11301B095AB84AB83EB9EE497AB86AB86EC9FE474
S11301C091AF80AF89ED90E593AF82AF8CEE91E56E
S11301D095AF84AF8FEF92E597AF86AF85E295E553
S11301E0909389018093880188E396E590938B012D
S11301F080938A018BE497E590938D0180938C0121
S113020081E799E590938F0180938E0184E89AE5C4
S1130210909391018093900187E99BE590939301DA
S1130220809392018DEB9DE59093950180939401C9
S113023089E59FE5909397018093960182EE9FE56F
S1130240909399018093980185EF90E690939B0198
S113025080939A0188E092E690939D0180939C019B
S11302608BE193E690939F0180939E018EE294E646
S11302709093A1018093A00184E596E69093A30155
S11302808093A20187E697E69093A5018093A40149
S11302908AE798E69093A7018093A6018DE899E6F2
S11302A09093A9018093A80180EA9AE69093AB0108
S11302B08093AA010895EDE3F1E026E331E0829111
S11302C08183E217F307D9F78091450180933601C2
S11302D0E5E4F1E02EE331E082918183E217F30754
S11302E0D9F710923E01089590E08830910518F5F1
S11302F0FC01EA5BFF4F4AC181E080933E0108950F
S113030082E080933E01089584E080933E01089545
S113031088E080933E01089580E180933E01089532
S113032080E280933E01089580E480933E01089525
S113033080E880933E010895CF93DF93EEE3F1E0EC
S113034080E090E0A2E6B0E040E850E021912C93F8
S11303509A01082E02C0359527950A94E2F7209554
S113036022BBC9EFD0E02197F1F700C0000001964D
S11303708830910559F78FEF82BBDF91CF910895B3
S1130380E6E3F1E080E090E040E850E021912BBB0F
S11303909A01082E02C0359527950A94E2F7209514
S11303A025BBA9EFB0E01197F1F700C0000001965A
S11303B08830910559F78FEF85BB08950F931F93EC
S11303C0CF93DF9300D000D000D0CDB7DEB78FEF4E
S11303D08ABB84BB8093610081BB1A8219821C8210
S11303E01B828B819C818035934C08F07BC000E09C
S11303F010E061DF1E821D822091320130913301B1
S11304004D815E81C90199230CF4019695958795D8
S113041048175907A8F490DF8D819E8101969E8329
S11304208D8320913201309133014D815E81C90168
S113043099230CF40196959587954817590758F315
S11304401E821D8220913201309133014D815E81E3
S1130450C90199230CF40196959587954817590776
S1130460A8F48EDF8D819E8101969E838D832091D9
S11304703201309133014D815E81C90199230CF41D
S11304800196959587954817590758F3F801EE0F8B
S1130490FF1FE85BFE4F808191818C509E4F2B8122
S11304A03C818217930728F4A901481B590BCA0100
S11304B002C0821B930B8234910540F4F801E05092
S11304C0FF4F8081880F10DF0F5F1F4F8B819C814E
S11304D08E5B9F4F9C838B838B819C818035934C57
S11304E008F487CF26960FB6F894DEBF0FBECDBFB3
S11304F0DF91CF911F910F910895BB9A8DB1806CBC
S11305008DB98FEF8ABB84BBE7CD08959FEF90939D
S113051064009093650052DF81E080933401089574
S11305201F920F920FB60F9211240BB60F922F93B6
S11305303F934F935F936F937F938F939F93AF9367
S1130540BF93EF93FF938FB180913401813029F4ED
S113055082E0809334018FB1D9DFFF91EF91BF9195
S1130560AF919F918F917F916F915F914F913F9147
S11305702F910F900BBE0F900FBE0F901F901895E8
S11305808FEF80936400B9DF7894FFCFEE0FFF1FE5
S11305900024001C0BBE0790F691E02D0994F894FA
S10505A0FFCF87
S11305A2010203020101010202020101010102032B
S11305B2020101010202010203010203020101011B
S11305C2020202010101010203020101010202010C
S10905D202037E0001009B
S9030000FC
