:1000000045C000007BC20000DAC2000038C3000017
:1000100097C30000F6C3000024C4000054C00000D1
:1000200052C0000050C000004EC000004CC0000094
:100030004AC0000048C0000046C0000044C00000A4
:1000400042C000004CC200003EC000003CC00000A6
:100050003AC0000038C0000036C0000034C00000C4
:1000600032C0000030C000002EC000002CC00000D4
:100070002AC0000028C0000026C0000024C00000E4
:1000800022C0000020C000001EC0000011241FBEBE
:10009000CFEFD0E1DEBFCDBF11E0A0E0B1E0EAE8F4
:1000A000F9E000E00BBF02C007900D92A634B10743
:1000B000D9F721E0A6E4B1E001C01D92AD3BB20743
:1000C000E1F71FD460C49CCF9FEF94BB8FE0809377
:1000D0006400E5E6F0E0808395BB808315BA8083F9
:1000E0000895CF93DF93AC01C2E5D1E09C01369532
:1000F00027953695279536952795A5ECB0E234D40B
:10010000929582958F7089279F708927FC01EC5FFB
:10011000FE4F2081288368EE73E0869F9001879FC1
:10012000300D969F300D1124CA01821B930B9C0148
:100130003695279536952795ABE7B4E115D4969576
:100140008795FC01EC5FFE4F808189839A0136958B
:1001500027953695279508D49695879564E6689FE8
:100160009001699F300D1124CA01821B930B9C01E1
:10017000ADECBCECF9D396958795969587959695B9
:100180008795FC01EC5FFE4F80818A839A01ECD356
:100190009695879596958795969587959C01220FBC
:1001A000331F880F991F880F991F880F991F820F7F
:1001B000931F481B590BFA01EC5FFE4F80818B8324
:1001C000FE01A0E0B1E026E531E0C5E6D0E0819196
:1001D00085BB8D9188838FE39FE10197F1F700C084
:1001E0000000E217F30799F7DF91CF910895E9E551
:1001F000F1E08AE69DE19183808386E09FE193832D
:1002000082838FE89FE19583848382EA90E29783DB
:10021000868385EB91E29187808788EC92E29387D1
:1002200082878BED93E29587848781E096E29787BA
:10023000868784E197E2918B808B87E298E2938BAB
:10024000828B8DE49AE2958B848B80E69BE2978B80
:10025000868B83E79CE2918F808F89E99EE2938F62
:10026000828F85E390E3958F848F8EEB90E3978F59
:10027000868F81ED91E391A380A384EE92E393A313
:1002800082A387EF93E395A384A38AE095E397A3E2
:1002900086A380E397E391A780A783E498E393A7DD
:1002A00082A786E599E395A784A789E69AE397A7AD
:1002B00086A78CE79BE391AB80AB88EF90E593AB8F
:1002C00082AB84E992E595AB84AB8DE193E597AB86
:1002D00086AB80E394E591AF80AF83E495E593AF7F
:1002E00082AF86E596E595AF84AF89E697E597AF4F
:1002F00086AF8FE899E590939A018093990182EAFD
:100300009AE590939C0180939B0185EB9BE59093EC
:100310009E0180939D018BED9DE59093A0018093BC
:100320009F018EEE9EE59093A2018093A10181E052
:1003300090E69093A4018093A30187E292E69093C4
:10034000A6018093A50183EC93E69093A801809386
:10035000A7018CE494E69093AA018093A9018FE50C
:1003600095E69093AC018093AB0182E796E690937B
:10037000AE018093AD0185E897E69093B00180933C
:10038000AF0188E998E69093B2018093B1018EEBBA
:100390009AE69093B4018093B30181ED9BE690932C
:1003A000B6018093B50184EE9CE69093B8018093EA
:1003B000B70187EF9DE69093BA018093B9018AE077
:1003C0009FE69093BC018093BB0108951092510168
:1003D0001092500110924F0110924E0110924B0159
:1003E00010924A0110924D0110924C011092570147
:1003F0001092560110924901109248011092470143
:1004000010924601F4CE089587B3876187BB8DB102
:10041000806D8DB9C49A0895C4986F988FB9779BF1
:10042000FECF6F9A089560910E0170910F01E9E57A
:10043000F1E040E050E021913191281739072CF488
:10044000DC01A21BB30B9D0102C0281B390B6217F4
:10045000730740F44F5F5F4F4233510561F78FEFF1
:100460009FEF0895842F952F0895CF9320914A01EF
:1004700030914B01261737072CF4AB01421B530B6D
:100480009A0102C0261B370B2233310508F1C82F11
:10049000CB01C9DF8F3F5FEF9507E9F0FC01E05F1B
:1004A000FE4F20812C130AC0880F991FFC01E75AC8
:1004B000FE4F1182108285E090E00FC0880F991FD7
:1004C000FC01E75AFE4F1182108280E090E005C0E7
:1004D00080E090E002C080E090E0CF9108951F920C
:1004E0000F920FB60F9211248F938FB18093580102
:1004F0008F910F900FBE0F901F9018951F920F9223
:100500000FB60F9211240BB60F922F933F934F9378
:100510005F936F937F938F939F93AF93BF93EF936B
:10052000FF938091460190914701209148013091BD
:100530004901821793072CF4A901481B590BCA01E2
:1005400002C0821B930B8536910534F180914601E0
:100550009091470190934901809348018091420115
:10056000823081F4609150017091510181E07DDF12
:1005700020914E0130914F01820F931F90934F01B4
:1005800080934E0180914201813031F487E594E0FF
:100590009093450180934401FF91EF91BF91AF91FA
:1005A0009F918F917F916F915F914F913F912F918B
:1005B0000F900BBE0F900FBE0F901F9018951F92BB
:1005C0000F920FB60F9211240BB60F922F933F93F9
:1005D0004F935F936F937F938F939F93AF93BF934B
:1005E000EF93FF938091460190914701209148013C
:1005F00030914901821793072CF4A901481B590B2C
:10060000CA0102C0821B930B853691052CF18091A3
:100610004601909147019093490180934801809150
:100620004201823079F460915001709151011DDFD7
:1006300020914E0130914F01820F931F90934F01F3
:1006400080934E0180914201813031F48EEA98E02E
:100650009093450180934401FF91EF91BF91AF9139
:100660009F918F917F916F915F914F913F912F91CA
:100670000F900BBE0F900FBE0F901F9018951F92FA
:100680000F920FB60F9211240BB60F922F933F9338
:100690004F935F936F937F938F939F93AF93BF938A
:1006A000EF93FF938091460190914701209148017B
:1006B00030914901821793072CF4A901481B590B6B
:1006C000CA0102C0821B930B8536910534F18091DB
:1006D0004601909147019093490180934801809190
:1006E0004201823081F4609150017091510183E0A8
:1006F000BCDE20914E0130914F01820F931F9093E9
:100700004F0180934E0180914201813031F485E0A8
:100710009DE09093450180934401FF91EF91BF913B
:10072000AF919F918F917F916F915F914F913F9189
:100730002F910F900BBE0F900FBE0F901F9018952A
:100740001F920F920FB60F9211240BB60F922F9398
:100750003F934F935F936F937F938F939F93AF9349
:10076000BF93EF93FF9380914601909147012091B1
:10077000480130914901821793072CF4A901481BC5
:10078000590BCA0102C0821B930B8536910534F1C7
:1007900080914601909147019093490180934801CF
:1007A00080914201823081F4609150017091510139
:1007B00084E05BDE20914E0130914F01820F931F48
:1007C00090934F0180934E0180914201813031F42A
:1007D0008CE591E19093450180934401FF91EF9165
:1007E000BF91AF919F918F917F916F915F914F9149
:1007F0003F912F910F900BBE0F900FBE0F901F9047
:1008000018951F920F920FB60F9211242F933F93BA
:100810008F939F938091440190914501019690930D
:100820004501809344012091430130E028173907A6
:1008300030F481E090E090934501809344012FE1F2
:1008400081EA97E0215080409040E1F700C000002D
:100850009F918F913F912F910F900FBE0F901F90FE
:1008600018951F920F920FB60F9211240BB60F928C
:100870002F933F934F935F936F937F938F939F93A8
:10088000AF93BF93EF93FF9380914A0190914B01F7
:100890002091500130915101821793072CF4A90146
:1008A000481B590BCA0102C0821B930B803991402F
:1008B000A8F080914201813019F0823049F00EC0D9
:1008C00082E08093420182DD80914401A5DD06C073
:1008D00081E0809342017ADD84E99EDDFF91EF9112
:1008E000BF91AF919F918F917F916F915F914F9148
:1008F0003F912F910F900BBE0F900FBE0F901F9046
:1009000018958FEC82B980EF81BB8AEA80936A00E8
:100910008ABF8FE389BF8FEF8ABB76DD7894D4DB03
:1009200055DD80914201813019F0823039F00BC0E1
:100930008091440190914501D4DB05C080914E0126
:1009400090914F01CEDB80915001909151019C011B
:10095000285F3F4F30935101209350014096909370
:10096000470180934601DDCFA29FB001B39FC00134
:10097000A39F700D811D1124911DB29F700D811DCB
:0A0980001124911D0895F894FFCF93
:10098A00080402013F065B4F666D7C077F67FA0029
:10099A000102030201010102020201010101020333
:1009AA000201010102020102030102030201010123
:1009BA000202020101010102030201010102020114
:0609CA0002030108010018
:00000001FF
